:1000000028C04CC04BC04AC049C048C09CC446C070
:1000100045C044C043C020C341C040C03FC03EC0F3
:100020003DC0003A37003B3800393600324002020A
:1000300002010101010101010101020480402010BF
:100040000804020100000102030400000000000097
:100050004F0011241FBECFE5D1E0DEBFCDBF10E0C1
:10006000A0E6B0E0E8E2FFE002C005900D92AA3DF4
:10007000B107D9F711E0AAEDB0E001C01D92A0319F
:10008000B107E1F710E0C2E5D0E003C02297FE011E
:1000900045D7C035D107D1F72ED444C7B1CF8CEDA9
:1000A00090E063E042E03FD208958CED90E06EE195
:1000B000A4D180E0209160003091610026173707BD
:1000C0000CF481E008957F928F929F92AF92BF923D
:1000D000CF92DF92EF92FF920F931F93CF93DF9314
:1000E000782E4B0159016A01C0E0D0E025C0F5012E
:1000F000619171915F0188EE93E0BED67B01F601BC
:10010000619171916F010027F7FC0095102F872DE9
:10011000A80197017ED4C801B7018AD526E636E644
:1001200046EA5FE311D651D5882777FD8095982F51
:10013000EAD2872DE4D32196C815D905C4F2DF9100
:10014000CF911F910F91FF90EF90DF90CF90BF90D4
:10015000AF909F908F907F9008950F931F93CF93B0
:10016000DF93A3DF882309F482C08091DA009091A5
:10017000DB0001969093DB008093DA0080FD03C0E2
:100180008AE060E002C08AE061E07BD32091DA007F
:100190003091DB00C90187709070892B09F053C042
:1001A000C90168E370E054D6892B09F041C000E032
:1001B00010E022C0C0FD03C08AE060E002C08AE017
:1001C00061E05FD3AE01440F551F9A0120553F4FA8
:1001D00089E090E061E070E048575F4F74DF21965E
:1001E000E0918600F0918700CE17DF071CF30F5FC8
:1001F0001F4F0230110519F0C0E0D0E0F1CFEE0F33
:10020000FF1FE255FF4F6081718188EE93E034D685
:10021000882777FD8095982F0BD526E636E646EAA7
:100220005FE392D5D7D46FD28AE060E02AD31CC0B6
:1002300060916C0070916D0089E090E04EE650E0B6
:100240002AE730E00AC0609162007091630089E0A3
:1002500090E044E650E028E630E035DF05C069E193
:1002600070E080E090E04FD220DF8823C1F7DF917B
:10027000CF911F910F9108958AE060E002D38AE048
:1002800061E0DBD289E060E0FCD289E061E0D5D2B8
:100290000895CF93DF93EC01F894EB8DFC8D908162
:1002A000888D809589238083EE8DFF8D90818D8D43
:1002B000809589238083EAA1FBA190818D8D809513
:1002C00089238083EE8DFF8D80819D8D892B808396
:1002D000EE8DFF8D90818D8D809589238083EB8DB0
:1002E000FC8D8081988D892B80837894E8A1F9A179
:1002F00080816D8D90E0262F30E082239323892B1F
:10030000B1F42C893D894E895F8988859985AA85B4
:10031000BB85281739074A075B0748F42F5F3F4F13
:100320004F4F5F4F2C8B3D8B4E8B5F8BDFCF2C89DC
:100330003D894E895F8988859985AA85BB85821705
:100340009307A407B50708F442C0F894EAA1FBA1FB
:100350008081682B6083EE8DFF8D80819D8D892B40
:100360008083EE8DFF8D90818D8D80958923808394
:10037000EAA1FBA190818D8D809589238083EB8DEF
:10038000FC8D9081888D8095892380837894E8A165
:10039000F9A1208130E08D8D90E028233923232B93
:1003A000E1F02C893D894E895F8988859985AA85E8
:1003B000BB85281739074A075B0778F42F5F3F4F43
:1003C0004F4F5F4F2C8B3D8B4E8B5F8BE0CF2EEFD3
:1003D0003FEFC901DF91CF9108952C893D894E8966
:1003E0005F8988859985AA85BB85281739074A07BB
:1003F0005B0768F721E030E0ECCFEF92FF920F93BC
:100400001F93CF93DF93EC01062F1C8A1D8A1E8A4F
:100410001F8A662329F420E030E040E050E07AC0F3
:100420008881998197FF05C02FEF3FEF4FEF5FEF76
:1004300071C010E00AC0CE012CDF97FF05C02EEF7F
:100440003FEF4FEF5FEF66C01F5F1017A0F34DD176
:10045000288939894A895B89621B730B840B950B48
:100460002C853D854E855F85261737074807590738
:10047000A0F52C893D894E895F896A817B818C81B9
:100480009D81261737074807590721F4EE24FF24DA
:10049000870106C079018A01E61AF70A080B190BD1
:1004A000C5D32DEC3CEC4CEC5DE34ED48ED38827C9
:1004B00077FD8095982FE616F7060807190768F468
:1004C0008FEF9FEFAFEFBFE08A839B83AC83BD8349
:1004D0000CD1688B798B8A8B9B8B2C893D894E89BB
:1004E0005F898A819B81AC81BD81281739074A07C2
:1004F0005B0720F42A833B834C835D832C893D89F1
:100500004E895F898A819B81AC81BD81281B390B13
:100510004A0B5B0BB901CA01DF91CF911F910F917B
:10052000FF90EF900895EF92FF920F931F93CF9358
:10053000DF938C0181E090E0D80111969C938E931B
:1005400086E391E017969C938E93169780EF9AEB33
:10055000A4E0B0E0F80180879187A287B38780E2AA
:100560009EE4A0E0B0E084879587A687B787862FB2
:1005700090E0C9E3D0E0FE01E80FF91FE491D80153
:100580005896EC93AEE2B0E08A0F9B1FFC01649199
:10059000862F90E022E230E0F901E80FF91F549134
:1005A000F801518F128E55E2E52E50E0F52E8E0D9A
:1005B0009F1DFC016491F801638F148E50E0C40FFD
:1005C000D51FFE018491F801858FA40FB51FFD0191
:1005D000849190E0280F391FF9012491D8015E968B
:1005E0002C935E975F961C925F97FC01E85DFF4F2E
:1005F000E4919096EC93909791961C929197E80EC7
:10060000F91EF701849192968C93929793961C927F
:10061000F894D8015996ED91FC915A97808158969B
:100620009C91892B808378948FEF9FEFAFEFBFE091
:10063000F80182839383A483B58357D0D801509661
:100640006D937D938D939C935397DF91CF911F91E1
:100650000F91FF90EF9008951F920F920FB60F9297
:1006600011242F933F938F939F93AF93BF938091C8
:10067000040190910501A0910601B091070130910C
:100680000801232F2A5F2D3728F02D570396A11D2F
:10069000B11D03C00296A11DB11D209308018093D6
:1006A000040190930501A0930601B0930701809186
:1006B000000190910101A0910201B0910301019606
:1006C000A11DB11D8093000190930101A09302012F
:1006D000B0930301BF91AF919F918F913F912F9163
:1006E0000F900FBE0F901F9018958FB7F894209120
:1006F00004013091050140910601509107018FBF1F
:10070000B901CA0108959B01AC017FB7F8948091AB
:10071000000190910101A0910201B091030162B723
:1007200008B600FE05C06F3F19F00196A11DB11D6E
:100730007FBFBA2FA92F982F8827860F911DA11D43
:10074000B11D63E0880F991FAA1FBB1F6A95D1F7DF
:10075000BC012EC0FFB7F894809100019091010177
:10076000A0910201B0910301E2B708B600FE05C0F6
:10077000EF3F19F00196A11DB11DFFBFBA2FA92FA0
:10078000982F88278E0F911DA11DB11DE3E0880FC2
:10079000991FAA1FBB1FEA95D1F7861B970B885E8E
:1007A0009340C0F2215030404040504068517C4F4F
:1007B000211531054105510569F608951EBC1FBC80
:1007C0001DBC1CBC1BBC1ABC19BC18BC8CB1887DE0
:1007D0008CB98BB187628BB98EB5887F8EBD8FB592
:1007E0008C7F81608FBD8EB5877E8EBD8EB5887FF4
:1007F00083608EBD0895789480B7836080BF83B78F
:10080000877F83BF83B7887F836083BF89B7816019
:1008100089BF8EB5887F8EBD8FB58C7F81608FBD7F
:100820008EB5877E8EBD8EB5887F83608EBD86B186
:10083000887F866086B9379A0895482F50E0CA01AC
:10084000875C9F4FFC012491425D5F4FFA018491C8
:100850008823B1F0E82FF0E0EE5DFF4FE491F0E087
:10086000662341F49FB7F89480812095822380838A
:100870009FBF08959FB7F8948081822B80839FBF8C
:100880000895282F482F50E0CA01875C9F4FFC0134
:100890003491425D5F4FFA019491992359F12230CE
:1008A00019F480B78F7304C0233021F480B78F7C94
:1008B00080BF0AC0243019F48FB58F7304C025306F
:1008C00019F48FB58F7C8FBDE92FF0E0EB5DFF4F02
:1008D000E491F0E0662341F49FB7F894808130956D
:1008E000832380839FBF08959FB7F8948081832BD3
:1008F00080839FBF08957FDFBFDC2FDCFECF909108
:10090000D8009F3FF9F0981711F08F3FD9F48CB1C0
:10091000887D8CB98EB5887F8EBD50DFE0910D014A
:10092000F0910E01309739F0908180910F01809500
:100930008923808304C08091D80060E0A2DF8FEF1C
:100940008093D80008951F920F920FB60F92112432
:100950002F933F934F935F936F937F938F939F93C7
:10096000AF93BF93EF93FF938091090190910A0198
:10097000A0910B01B0910C010097A105B105B1F157
:100980008091090190910A01A0910B01B0910C0195
:10099000181619061A061B06FCF48091090190919D
:1009A0000A01A0910B01B0910C010197A109B109B5
:1009B0008093090190930A01A0930B01B0930C015D
:1009C0008091090190910A01A0910B01B0910C0155
:1009D0000097A105B10551F0E0910D01F0910E01D4
:1009E000808190910F018927808302C08FEF87DF7C
:1009F000FF91EF91BF91AF919F918F917F916F91F7
:100A00005F914F913F912F910F900FBE0F901F90CC
:100A10001895AF92BF92CF92DF92FF920F931F93E0
:100A2000CF93DF93182FEB0159016A018091D80011
:100A30008F3F09F045C01EBC1FBC1DBC1CBC1BBCAD
:100A40001ABC19BC18BC8CB1887D8CB98BB187627B
:100A50008BB98FB58C7F8FBD8EB5877E88608EBD3C
:100A6000812F8450823080F410920E0110920D017B
:100A700010920F01143021F48FB58F7380641AC067
:100A80008FB58F7C806116C0812F90E0FC01E25D04
:100A9000FF4FE491F0E0EB5DFF4FE491E0930D0137
:100AA00010920E01875C9F4FFC01849180930F018F
:100AB0008FB58F708FBD812F61E0BFDE1093D8009E
:100AC000F090D800F11609F076C08EB5887F8EBD03
:100AD0001DBC1CBC209709F468C0C830D10528F49F
:100AE00020E430E003E010E00CC0CE33D10528F064
:100AF00021E030E001E010E004C028E030E002E056
:100B000010E0BE0180E090E0660F771F881F991FFC
:100B100040E050E084D19B01AC0160E074E284EFDE
:100B200090E0DFD12F5F3F4F4F4F5F4FCA01B901B8
:100B300022E030E040E050E0D4D1215030403BBDD5
:100B40002ABDA114B104C104D104C1F0CC0FDD1F32
:100B5000BE0180E090E0A601950161D128EE33E06E
:100B600040E050E09CD1C901DA01809309019093E3
:100B70000A01A0930B01B0930C0111C08FEF9FEFFE
:100B8000AFEFBFEF8093090190930A01A0930B018F
:100B9000B0930C01FCEFFF0E81E08F1508F4619A11
:100BA0008EB5887F802B8EBD06C08CB1887D8CB9B8
:100BB000812F60E066DEDF91CF911F910F91FF9052
:100BC000DF90CF90BF90AF90089504D06894B1119A
:100BD000B5C0089598D088F09F5790F0B92F992705
:100BE000B751A0F0D1F0660F771F881F991F1AF038
:100BF000BA95C9F712C0B13081F09FD0B1E0089525
:100C00009CC0672F782F8827B85F39F0B93FCCF3A5
:100C1000869577956795B395D9F73EF4909580952D
:100C2000709561957F4F8F4F9F4F0895E89409C04D
:100C300097FB3EF490958095709561957F4F8F4F0F
:100C40009F4F9923A9F0F92F96E9BB279395F69525
:100C5000879577956795B795F111F8CFFAF4BB0FA3
:100C600011F460FF1BC06F5F7F4F8F4F9F4F16C007
:100C7000882311F096E911C0772321F09EE8872F91
:100C8000762F05C0662371F096E8862F70E060E04D
:100C90002AF09A95660F771F881FDAF7880F9695C6
:100CA000879597F9089597F99F6780E870E060E06D
:100CB00008959FEF80EC089500240A9416161706F5
:100CC00018060906089500240A941216130614063D
:100CD00005060895092E0394000C11F4882352F0A0
:100CE000BB0F40F4BF2B11F460FF04C06F5F7F4F58
:100CF0008F4F9F4F089557FD9058440F551F59F03F
:100D00005F3F71F04795880F97FB991F61F09F3FF8
:100D100079F087950895121613061406551FF2CF21
:100D20004695F1DF08C0161617061806991FF1CF71
:100D300086957105610508940895E894BB27662798
:100D40007727CB0197F908950AD0C4CFB5DF28F0F3
:100D5000BADF18F0952309F0A6CFABCFEFCFCBDFEA
:100D6000A8F39923D9F35523C9F3950F50E0551FE4
:100D7000AA27EE27FF27BB2700240894679520F4B5
:100D8000E20FF31FB41F0A1E220F331F441FAA1FB6
:100D90006695A9F7779530F4F30FB41F0A1E121E5B
:100DA00008F46395330F441FAA1F221F769599F705
:100DB000879520F4B40F0A1E121E631F440FAA1F4A
:100DC000221F331F8695A9F7862F712D602D1124C0
:100DD0009F5750408AF0E1F088234AF0EE0FFF1F42
:100DE000BB1F661F771F881F91505040A9F79E3F79
:100DF000510570F058CFA2CF5F3FECF3983EDCF383
:100E0000869577956795B795F795E7959F5FC1F7B5
:100E1000FE2B880F911D9695879597F90895FF27CA
:100E2000EE27BB27AA2760FF04C0A20FB31FE41F51
:100E3000F51F220F331F441F551F969587957795F1
:100E4000679589F70097760771F7CF01BD0108957F
:100E5000AA1BBB1B51E107C0AA1FBB1FA617B707E0
:100E600010F0A61BB70B881F991F5A95A9F78095FC
:100E70009095BC01CD01089597FB092E07260AD055
:100E800077FD04D0E5DF06D000201AF47095619557
:100E90007F4F0895F6F7909581959F4F0895A1E2B1
:100EA0001A2EAA1BBB1BFD010DC0AA1FBB1FEE1FE4
:100EB000FF1FA217B307E407F50720F0A21BB30B2F
:100EC000E40BF50B661F771F881F991F1A9469F7AB
:100ED00060957095809590959B01AC01BD01CF0107
:100EE000089597FB092E05260ED057FD04D0D7DFB5
:100EF0000AD0001C38F450954095309521953F4F0D
:100F00004F4F5F4F0895F6F79095809570956195D6
:100F10007F4F8F4F9F4F0895EE0FFF1F0590F49165
:080F2000E02D0994F894FFCFC5
:100F28005E01020097042006100002000600270553
:100F380020064D0A2D082D09400C0800080008005D
:100F480008000800080014001704170417044B02CF
:100F5800170417044B0217044B021704DC03DC03C5
:100F6800DC030B02DC03DC030B02DC030B02DC03F7
:100F78000600060006000C00060006000C000C0027
:100F88000C0006000600060006000C00060006001D
:0A0F98000C000C000C000600FF0026
:00000001FF
